:0400000026EF00F0F7
:100008005982FACF35F0FBCF36F0F2AC0EEF00F0A4
:1000180010EF00F020EF00F0A3A415EF00F017EFA9
:1000280000F020EF00F0A4A41CEF00F01EEF00F099
:1000380020EF00F0DCEC0AF036C0FBFF35C0FAFF19
:0800480059921100F3EF0AF0D8
:100F000000506572696F64652020203A004D61676A
:100F10006E6574697175653A0054656D707320482B
:090F20006175743A0025640000BB
:100F2A004450D96EDA6ADFCFF6FF0F0EF76E08006B
:100F3A00F550250AD8A4A4EF07F0A6EF07F061EF51
:100F4A0008F04450D96EDA6ADF2A000E226E000ECB
:100F5A00216E21C02FF0236824684450D96EDA6AC2
:100F6A00DF50486E48C0F6FF0F0EF76E0800F550C6
:100F7A00640AD8B4C3EF07F0C5EF07F0D3EF07F060
:100F8A0048C0F6FF0F0EF76E0800F550690AD8A49C
:100F9A00D1EF07F0D3EF07F05BEF08F04550D96EB9
:100FAA00DA6A020EDF26DF5CD96EDA6ADECF49F032
:100FBA00DECF4AF04450D96EDA6A4828DF6E200E36
:100FCA004D6E4ABEEBEF07F0EEEF07F0010EEFEFC2
:100FDA0007F0000E476E4D064D50010FD96EDA6AC2
:100FEA0049C037F04AC038F0000E3A6E0A0E396E20
:100FFA00C7EC09F037C03DF038C03EF0C2EC0AF049
:10100A003D50300FDF6E49C037F04AC038F0000E4D
:10101A003A6E0A0E396E65EC09F037C049F038C0ED
:10102A004AF049504A10D8B41DEF08F01FEF08F0F3
:10103A0027EF08F04D50D8A425EF08F027EF08F065
:10104A00F0EF07F04D50D8B42DEF08F02FEF08F06D
:10105A0050EF08F04750D8B435EF08F037EF08F0F2
:10106A0050EF08F04D064D50010FD96EDA6A2D0E79
:10107A00DF6E50EF08F04D50010FD96EDA6ADF507B
:10108A00466E4650396E3A6A42C03BF043C03CF065
:10109A0000EC09F04D2A200E4D18D8A457EF08F09D
:1010AA0059EF08F040EF08F074EF08F04450D96E99
:1010BA00DA6ADF2A74EF08F04450D96EDA6ADFCFB1
:1010CA00F6FF0F0EF76E0800F550396E3A6A42C005
:1010DA003BF043C03CF000EC09F05BEF08F0120073
:1010EA004EEC0BF0F28EF28CB20E376E140E386E96
:1010FA0094EC0BF079EC0BF0000E396E000E386EA2
:10110A0066EC0BF0190E0001606F41EC0BF0000E5B
:10111A00396E400E386E66EC0BF0010E0001606FFE
:10112A0041EC0BF0000E396E140E386E66EC0BF0C3
:10113A000D0E0001606F41EC0BF0000E396E0C0EC3
:10114A00386E66EC0BF0250E0001606F2BC037F08D
:10115A002CC038F0000E3A6E050E396E1FEC0AF0FC
:10116A0037C061F038C062F041EC0BF0000E396E06
:10117A004C0E386E66EC0BF0250E0001606F29509C
:10118A002B24376E2A502C20386E000E3A6E050E2C
:10119A00396E1FEC0AF037C061F038C062F041ECDA
:1011AA000BF0000E396E200E386E66EC0BF0250E31
:1011BA000001606F29C037F02AC038F0000E3A6E7D
:1011CA00050E396E1FEC0AF037C061F038C062F0C4
:1011DA0041EC0BF01A0E0001646F5E0E636F6E0E27
:1011EA00E82EFED7632FFCD7642FFAD70000A2EFB0
:1011FA0008F026EF00F03B503C10D8B407EF09F096
:10120A0009EF09F012EF09F03B503C10D8A410EF97
:10121A0009F012EF09F017EF09F0395080EC0BF0E2
:10122A0064EF09F020EE0AF03B50D9263C50DA224E
:10123A00DE50DE10D8B424EF09F026EF09F041EFB2
:10124A0009F020EE0AF03B50D9263C50DA2210EE83
:10125A0003F03B50E1263C50E222DE50E65CE650C9
:10126A00800A416EDE50800A4158D8B03FEF09F03B
:10127A0041EF09F064EF09F020EE03F03B50D92664
:10128A003C50DA22DECF3DF0DDCF3EF03BC0D9FF45
:10129A003CC0DAFFDECF3FF0DDCF40F03D503F24C7
:1012AA00D96E3E504020DA6E39C0DFFF20EE03F0DF
:1012BA003B50D9263C50DA22DE2A000EDD221200EB
:1012CA00000E3C6E3ABE6EEF09F06CEF09F074EF57
:1012DA0009F0396C3A1ED8B03A2A010E3C6E38BE73
:1012EA007BEF09F079EF09F081EF09F0376C381ECE
:1012FA00D8B0382A010E3C1A000E3E6E000E3D6E22
:10130A0039503A10D8B48CEF09F08EEF09F0B6EFE5
:10131A0009F0010E3B6E96EF09F0D89039363A364D
:10132A003B2A3AAE9BEF09F09DEF09F092EF09F0E4
:10133A00D8903D363E363950375C3A503858D8A0A6
:10134A00A9EF09F0ABEF09F0B0EF09F03950375EB9
:10135A003A50385A3D80D8903A3239323B2E9DEF76
:10136A0009F03C50D8B4BCEF09F0BEEF09F0C2EF67
:10137A0009F03D6C3E1ED8B03E2A3DC037F03EC053
:10138A0038F01200000E3C6E38BED0EF09F0CEEFF6
:10139A0009F0D6EF09F0376C381ED8B0382A010E9A
:1013AA003C6E3ABEDDEF09F0DBEF09F0E1EF09F040
:1013BA00396C3A1ED8B03A2A39503A10D8B4E8EF04
:1013CA0009F0EAEF09F00EEF0AF0010E3B6EF2EFB8
:1013DA0009F0D89039363A363B2A3AAEF7EF09F097
:1013EA00F9EF09F0EEEF09F03950375C3A50385806
:1013FA00D8A002EF0AF004EF0AF008EF0AF0395019
:10140A00375E3A50385AD8903A3239323B2EF9EF91
:10141A0009F03C50D8B414EF0AF016EF0AF01AEFAC
:10142A000AF0376C381ED8B0382A37C037F038C0BF
:10143A0038F01200000E3C6E000E3B6E39503A1026
:10144A00D8B42AEF0AF02CEF0AF054EF0AF0010E92
:10145A003D6E34EF0AF0D89039363A363D2A3AAE24
:10146A0039EF0AF03BEF0AF030EF0AF0D8903B363A
:10147A003C363950375C3A503858D8A047EF0AF012
:10148A0049EF0AF04EEF0AF03950375E3A50385AAF
:10149A003B80D8903A3239323D2E3BEF0AF03BC0BE
:1014AA0037F03CC038F012005804D8A45FEF0AF0B5
:1014BA0061EF0AF072EF0AF02550315C296E26506E
:1014CA0032582A6E31C027F032C028F0000E586E0A
:1014DA00040E0F01506F81EF0AF02750315C2B6E1A
:1014EA00285032582C6E31C025F032C026F0010E39
:1014FA00586E050E0F01506F120050C052F090EF57
:10150A000AF04EC042F04FC043F0520E446E51C032
:10151A0045F095EC07F052C0F6FF0F0EF76E080083
:10152A00F5500009D8A49CEF0AF09EEF0AF086EF66
:10153A000AF0000E4F6E000E4E6E1200080EA76ED5
:10154A00900EAB6E240EAC6E080EAF6E020E7D6E60
:10155A00000E376E000E386E8AEC0BF0000E376EF6
:10156A00000E386E85EC0BF0000E376E000E386EEA
:10157A008FEC0BF0000E306E12003EBEC7EF0AF081
:10158A00C9EF0AF0CFEF0AF03DC03DF03EC03EF091
:10159A00DBEF0AF03DC03FF03EC040F03F1E401E68
:1015AA003F4A402A3FC03DF040C03EF01200A4949A
:1015BA0051CF33F052CF34F033C031F034C032F06F
:1015CA0002D8F2EF0AF00500FA6E5650FD6E575037
:1015DA00FE6EF850FF6EFA5012001200380EF66EC8
:1015EA00170EF76E000EF86E0900F5CF58F000EEF0
:1015FA0001F0300EEE6AE806FDE159905992000EAC
:10160A00F86E000175EF08F0000E896E000E8A6E02
:10161A00000E8B6ECF0E926E9368BF0E946E1F0EE5
:10162A000F015D6F030E5C6F000E5B6FF18E12008F
:10163A00000EAA6ECF68CE689E90CE50CFCF37F0FC
:10164A00386A37C038F0376A37102D6E38502E6E28
:10165A00010ECD6E1200050E0F01506F000E516F74
:10166A00000E526F360E376E170E386E94EC0BF072
:10167A009992A494A3841200610E536E000E4E6ECA
:10168A00000E4F6E60C050F0530E516E82EC0AF09D
:10169A00120099EC0BF009EC0BF070EC0BF030EC4B
:1016AA000BF01DEC0BF0A3EC0AF01200376E9EA8AB
:1016BA0061EF0BF063EF0BF05CEF0BF037C0ADFF9F
:1016CA001200FE0E5BEC0BF0450E5BEC0BF0385093
:1016DA005BEC0BF01200600ED36E000ED26E000EA1
:1016EA009B6E000E9A6E1200FE0E5BEC0BF0510E12
:1016FA005BEC0BF01200386E38505BEC0BF012000A
:10170A0037C067F038C068F0120037C054F038C0EC
:10171A0055F0120037C065F038C066F0120037C0C5
:0F172A0056F038C057F01200D09E120012000186
:020000040030CA
:0E00000015027F50FF8991FF0FC00FE00F40E7
:00000001FF
