:0400000058EF00F0C5
:100008005B82FACF01F0FBCF02F0D9CF03F0DACF51
:1000180004F0F2AC12EF00F014EF00F04EEF00F035
:100028009DA819EF00F01BEF00F031EF00F09EA83B
:1000380020EF00F022EF00F031EF00F002D82FEFB0
:1000480000F00500FA6E5950FD6E5A50FE6EF850D9
:10005800FF6EFA5012004EEF00F09DAA36EF00F046
:1000680038EF00F04EEF00F09EAA3DEF00F03FEFB2
:1000780000F04EEF00F002D84CEF00F00500FA6EE9
:100088005750FD6E5850FE6EF850FF6EFA50120031
:100098004EEF00F004C0DAFF03C0D9FF02C0FBFF37
:0C00A80001C0FAFF5B921100A9EF0EF0FE
:100F00000041707075796572205520706F75722080
:100F100064656261727265722C4C20706F7572200C
:100F2000626172726572200D0A004445424152525C
:070F30004552200D0A0000EC
:100F38002150800B2A6E21502124306E20AEA7EF5D
:100F480007F0A9EF07F0AAEF07F030803050D8B4C7
:100F5800B0EF07F0B2EF07F0C5EF07F03028D8A4DC
:100F6800B8EF07F0BAEF07F0C2EF07F0000E1E6EF9
:100F7800000E1F6E000E206E000E216E208ECDEF2B
:100F880007F0000E1E6E000E1F6E000E206E000E83
:100F9800216E2550800B2A1A255025242F6E24AE49
:100FA800D8EF07F0DAEF07F0DBEF07F02F802F50CC
:100FB800D8B4E1EF07F0E3EF07F0F6EF07F02F28DA
:100FC800D8A4E9EF07F0EBEF07F0F3EF07F0000E16
:100FD800226E000E236E000E246E000E256E248EE7
:100FE800FEEF07F0000E226E000E236E000E246E38
:100FF800000E256E2F50D8B404EF08F006EF08F065
:101008000EEF08F03050D8A40CEF08F00EEF08F0FF
:1010180018EF08F0000E1E6E000E1F6E000E206EF8
:10102800000E216EB0EF09F024501E02F3CF35F008
:10103800F4CF36F035502B6E2C6A2D6A2E6A365056
:10104800316E326A336A346A23501F02F3CF35F0A7
:10105800F4CF36F035502B26000E2C222D222E22CE
:1010680036503126000E32223322342222502002FA
:10107800F3CF35F0F4CF36F035502B26000E2C2266
:101088002D222E2236503126000E322233223422CF
:101098002DC02EF02CC02DF02BC02CF02B6A225026
:1010A8001F02F3CF35F0F4CF36F035502B263650EB
:1010B8002C22000E2D22000E2E2223501E02F3CFCA
:1010C80035F0F4CF36F035502B2636502C22000E52
:1010D8002D22000E2E222DC02EF02CC02DF02BC05C
:1010E8002CF02B6A22501E02F3CF35F0F4CF36F0E5
:1010F80035502B2636502C22000E2D22000E2E2283
:1011080024501F02F3CF35F0F4CF36F03550312696
:1011180036503222000E3322000E34222350200291
:10112800F3CF35F0F4CF36F0355031263650322231
:10113800000E3322000E342224502002F3CF35F063
:10114800F4CF36F03550266E3650276E286A296A55
:1011580028C029F027C028F026C027F0266A265084
:1011680031262750322228503322295034222BC0CE
:1011780026F02CC027F02DC028F02EC029F0190E1B
:10118800CBEF08F0D8902932283227322632E82EC1
:10119800C6EF08F026503126275032222850332235
:1011A800295034222DC02EF02CC02DF02BC02CF04D
:1011B8002B6A2F5030C026F0276A2626000E2722D9
:1011C800820E2624356EFF0E2720366E01EF09F0B9
:1011D800D89031363236333634362EAEF6EF08F044
:1011E800F8EF08F0F9EF08F03180D8902B362C365C
:1011F8002D362E363506D8A0360633AE06EF09F062
:1012080008EF09F0ECEF08F0000E2F6E2EAE0FEF8E
:1012180009F011EF09F035EF09F0FF0E2B14266ED7
:10122800FF0E2C14276EFF0E2D14286E7F0E2E1421
:10123800296E2650271028102910D8B426EF09F057
:1012480028EF09F02CEF09F0010E2F6E35EF09F0A9
:1012580031A031EF09F033EF09F035EF09F028EF4D
:1012680009F02F50D8B43BEF09F03DEF09F061EFDA
:1012780009F0010E3126000E32223322342234A026
:1012880048EF09F04AEF09F061EF09F031C026F0A4
:1012980032C027F033C028F034C029F0293429326D
:1012A80028322732263226C031F027C032F028C033
:1012B80033F029C034F0354A362A36BE6CEF09F0CF
:1012C800365008E13528D8A06CEF09F06EEF09F028
:1012D80078EF09F0000E316E000E326E800E336E1C
:1012E8007F0E346EA6EF09F036BE85EF09F0365052
:1012F80006E13504D8B083EF09F085EF09F091EFE6
:1013080009F0000E316E000E326E000E336E000EC4
:10131800346E000E2A6EA6EF09F035C030F0FF0ECD
:101328003116FF0E32167F0E3316000E341630A01B
:10133800A0EF09F0A2EF09F0A3EF09F0338ED890DF
:101348003030346E2A50341231C01EF032C01FF0D3
:1013580033C020F034C021F012000850800B156E05
:10136800085008241C6E07AEBCEF09F0BEEF09F068
:10137800BFEF09F01C801C50D8B4C5EF09F0C7EFC7
:1013880009F0DCEF09F01C28D8A4CDEF09F0CFEF65
:1013980009F0D7EF09F0000E056E000E066E000E7C
:1013A800076E000E086E078E000E086EE4EF09F057
:1013B800000E056E000E066E000E076E000E086E1B
:1013C8000C50800B151A0C500C241D6E0BAEEFEF51
:1013D80009F0F1EF09F0F2EF09F01D801D50D8B4C3
:1013E800F8EF09F0FAEF09F00FEF0AF01D28D8A47A
:1013F80000EF0AF002EF0AF00AEF0AF0000E096E99
:10140800000E0A6E000E0B6E000E0C6E0B8E000E98
:101418000C6E17EF0AF0000E096E000E0A6E000E31
:101428000B6E000E0C6E09500A100B100C10D8A48D
:1014380020EF0AF022EF0AF03AEF0AF0000E056EEC
:10144800000E066E000E076E000E086E800E071264
:101458007F0E08121550081205C005F006C006F0E8
:1014680007C007F008C008F07DEF0BF01C50D8A4A7
:1014780040EF0AF042EF0AF04CEF0AF0000E056E5A
:10148800000E066E000E076E000E086E7DEF0BF064
:101498001D501CC00DF00E6A0D5E000E0E5A7F0E18
:1014A8000D24166E000E0E20176E05C011F006C032
:1014B80012F007C013F008C014F0000E056E000EFD
:1014C800066E000E076E000E086E000E186E000EF7
:1014D800196E000E1A6E000E1B6E000E1D6EADEF1B
:1014E8000AF01D50D8B47BEF0AF07DEF0AF094EFB4
:1014F8000AF0D8901136123613361436D8900536BD
:101508000636073608361BAE8CEF0AF08EEF0AF067
:101518008FEF0AF00580D890183619361A361B3620
:101528000950115C0A5012580B5013580C5014589B
:10153800D8A0A1EF0AF0A3EF0AF0ACEF0AF01B8CD9
:101548000950115E0A50125A0B50135A0C50145A73
:101558001D2A190E1D64B3EF0AF0B5EF0AF075EFF6
:101568000AF01150121013101410D8B4BEEF0AF07C
:10157800C0EF0AF0D8EF0AF01880D8EF0AF0D89038
:1015880005360636073608361BAECDEF0AF0CFEF24
:101598000AF0D0EF0AF00580D890183619361A36B6
:1015A8001B361606D8A0170607AEDDEF0AF0DFEFE8
:1015B8000AF0C3EF0AF0000E1D6E1BAEE6EF0AF04C
:1015C800E8EF0AF00CEF0BF0FF0E18140D6EFF0E8B
:1015D80019140E6EFF0E1A140F6E7F0E1B14106E68
:1015E8000D500E100F101010D8B4FDEF0AF0FFEFD9
:1015F8000AF003EF0BF0010E1D6E0CEF0BF005A0C7
:1016080008EF0BF00AEF0BF00CEF0BF0FFEF0AF00E
:101618001D50D8B412EF0BF014EF0BF038EF0BF0AD
:10162800010E0526000E06220722082208A01FEF39
:101638000BF021EF0BF038EF0BF005C00DF006C0F2
:101648000EF007C00FF008C010F0103410320F323F
:101658000E320D320DC005F00EC006F00FC007F0B7
:1016680010C008F0164A172A17BE43EF0BF01750A0
:1016780008E11628D8A043EF0BF045EF0BF050EF28
:101688000BF0000E176E1668000E056E000E066E43
:10169800000E076E000E086E17BE5DEF0BF01750B8
:1016A80006E11604D8B05BEF0BF05DEF0BF06BEFC3
:1016B8000BF0000E176E000E166E000E056E000E73
:1016C800066E000E076E000E086E000E156E16C030
:1016D8001CF01CA072EF0BF074EF0BF077EF0BF01F
:1016E800078E78EF0BF0079ED8901C30086E2EEF0F
:1016F8000AF0120039343A34406E4050D8A487EFCB
:101708000BF089EF0BF093EF0BF0000E376E000E25
:10171800386E000E396E000E3A6E00EF0CF037C0CE
:101728003BF038C03CF039C03DF03AC03EF0200EE6
:10173800A3EF0BF0D8903E323D323C323B32E82EDC
:101748009EEF0BF03B503F6E398EFF0E3716FF0EA3
:101758003816FF0E3916000E3A16960E405E40BE39
:10176800BAEF0BF0B8EF0BF0D0EF0BF04050800A57
:10177800970FD8B0C2EF0BF0C4EF0BF0C6EF0BF029
:1017880089EF0BF0D8903A32393238323732403E4E
:10179800C6EF0BF0E8EF0BF01F0E4064D6EF0BF02E
:1017A800D8EF0BF0E0EF0BF089EF0BF0D89037365D
:1017B800383639363A3640064050D8A4E6EF0BF0B2
:1017C800E8EF0BF0DAEF0BF03F50D8B4EEEF0BF088
:1017D800F0EF0BF0F8EF0BF03A1E391E381E376C9D
:1017E800000E382239223A2237C037F038C038F094
:1017F80039C039F03AC03AF0120009500A10D8B48A
:1018080008EF0CF00AEF0CF013EF0CF009500A1077
:10181800D8A411EF0CF013EF0CF018EF0CF00750F0
:1018280003EC0FF065EF0CF020EE0AF00950D92612
:101838000A50DA22DE50DE10D8B425EF0CF027EF7C
:101848000CF042EF0CF020EE0AF00950D9260A50AD
:10185800DA2210EE03F00950E1260A50E222DE50A7
:10186800E65CE650800A0F6EDE50800A0F58D8B04A
:1018780040EF0CF042EF0CF065EF0CF020EE03F0B7
:101888000950D9260A50DA22DECF0BF0DDCF0CF052
:1018980009C0D9FF0AC0DAFFDECF0DF0DDCF0EF0A8
:1018A8000B500D24D96E0C500E20DA6E07C0DFFFE6
:1018B80020EE03F00950D9260A50DA22DE2A000E5B
:1018C800DD221200770E226EBE0E236E9F0E246E4E
:1018D800410E256E000E096E000E0A6EC80E0B6EC4
:1018E800420E0C6E41C005F042C006F043C007F03E
:1018F80044C008F0B1EC09F005C01EF006C01FF0A6
:1019080007C020F008C021F09CEC07F01EC045F08D
:101918001FC046F020C047F021C048F0000E226EDC
:10192800C00E236E7F0E246E440E256E6F0E096E58
:10193800120E0A6E030E0B6E420E0C6E45C005F0B9
:1019480046C006F047C007F048C008F0B1EC09F0FF
:1019580005C01EF006C01FF007C020F008C021F027
:101968009CEC07F01EC037F01FC038F020C039F0DB
:1019780021C03AF07EEC0BF037C041F038C042F09D
:101988001200DCEC0EF0F28EF28C010E196ECFEC28
:101998000EF0000E416E000E426EF00E436E400EC9
:1019A800446E66EC0CF041C049F042C04AF059EC74
:1019B8000EF009EF0DF0000E416E000E426E380E6B
:1019C800436E410E446E66EC0CF041C049F042C0D3
:1019D8004AF059EC0EF02C0E196ECFEC0EF009EF10
:1019E8000DF0000E416E000E426E600E436E400E0A
:1019F800446E66EC0CF041C049F042C04AF059EC24
:101A08000EF02A0E196ECFEC0EF014EC0EF0000159
:101A1800A06FA16BA151000AD8B415EF0DF009EF22
:101A28000DF0A0514C0AD8B4DFEF0CF0190AD8B465
:101A3800F5EF0CF009EF0DF058EF00F05350800F60
:101A4800D96EDA6ADF6AABA42CEF0DF02EEF0DF039
:101A580041EF0DF05350800FD96EDA6A0001DF8232
:101A680002D841EF0DF00500FA6E9C51FD6E9D51B4
:101A7800FE6EF850FF6EFA501200ABA246EF0DF062
:101A880048EF0DF05BEF0DF05350800FD96EDA6A16
:101A98000001DF8402D85BEF0DF00500FA6E9A5161
:101AA800FD6E9B51FE6EF850FF6EFA5012005350B7
:101AB800800FD96EDA6ADF50D8B465EF0DF067EFA2
:101AC8000DF077EF0DF002D875EF0DF0050000016D
:101AD800FA6E9851FD6E9951FE6EF850FF6EFA50ED
:101AE800120079EF0DF0BCEC0EF012009D9A440E36
:101AF800056E1A0E066E0DEC0FF09D98EE0E056E33
:101B08001C0E066E08EC0FF0080EA76E900EAB6E5A
:101B1800240EAC6E0C0EAF6E000E7D6E520E056E6E
:101B28001E0E066E17EC0FF0420E056E1E0E066EA8
:101B380012EC0FF0480E056E1E0E066E1CEC0FF030
:101B4800000E506E000E566E000E556E080E546E46
:101B5800000E536E000E526E000E516E9D8A1200DA
:101B68001250D96EDA6ADFCFF6FF0F0EF76E080053
:101B7800F550250AD8A4C3EF0DF0C5EF0DF0D7EF47
:101B88000DF01250D96EDA6ADF2A000E4C6E000E84
:101B98004B6E4BC04FF04D684E681250D96EDA6AE2
:101BA800DF2AEAEF0DF01250D96EDA6ADFCFF6FFBE
:101BB8000F0EF76E0800F550076E086A10C009F09E
:101BC80011C00AF001EC0CF0D1EF0DF01200056E17
:101BD8005450D8B4F2EF0DF0F4EF0DF0ECEF0DF037
:101BE8009DB8F9EF0DF0FBEF0DF0FFEF0DF005C01C
:101BF800ADFF12EF0EF09D985650900FD96EDA6A2D
:101C080005C0DFFF562A070E56640DEF0EF00FEFE2
:101C18000EF011EF0EF0000E566E54069D8812005D
:101C28005150D8B41AEF0EF01CEF0EF014EF0EF06E
:101C38005250800FD96EDA6ADF50506E5250880FBA
:101C4800D96EDA6ADF50056E522A070E52642FEFFA
:101C58000EF031EF0EF033EF0EF0000E526E9D9A3B
:101C680051069D8A0550120016C018F046EF0EF076
:101C780014C010F015C011F0180E126E17C013F032
:101C8800B4EC0DF018C0F6FF0F0EF76E0800F55013
:101C98000009D8A452EF0EF054EF0EF03CEF0EF00E
:101CA800000E156E000E146E120049C09EF04AC058
:101CB8009FF00001D8909F339E33D8909F339E3376
:101CC8009E510F01516F49C09EF0030E00019E17EF
:101CD8009E3BF00E9E170F015051CF0B00019E1135
:101CE8000F01506F1200080E54607DEF0EF07FEF69
:101CF8000EF093EF0EF05550900FD96EDA6ADF5060
:101D0800AD6E552A070E55648CEF0EF08EEF0EF06F
:101D180090EF0EF0000E556E542A94EF0EF09D9839
:101D28001200000E896E000E8A6E000E8B6ECF0EAA
:101D3800926E9368BB0E946E1F0E0F015D6F030EBB
:101D48005C6F000E5B6FF18E120000EE60F0380ED3
:101D5800EE6AE806FDE100EE4BF00C0EEE6AE806CE
:101D6800FDE15B905B92000EF86E0001C5EF0CF090
:101D78005350880FD96EDA6AAECFDFFF532A070EA9
:101D88005364C9EF0EF0CBEF0EF0CDEF0EF0000E5E
:101D9800536E512A12001A0E1A6E000E146E000E9F
:101DA800156E19C016F01A0E176E38EC0EF01200E8
:101DB80027EC0FF095EC0EF0F2EC0EF0E9EC0EF0DB
:101DC800FBEC0EF07AEC0DF012000C0E0F01506FC8
:101DD800000E516F000E526F99921200200ED36EB2
:101DE800000ED26E000E9B6E000E9A6E12009B0EB5
:101DF800CB6E000ECC6E9E92060ECA6E1200066E58
:101E08000650EBEC0DF0120005C059F006C05AF070
:101E1800120005C057F006C058F0120005C09AF02D
:101E280006C09BF0120005C09CF006C09DF0120091
:101E380005C098F006C099F01200AB98AB88120064
:0C1E4800BCEC0EF01200D09E1200120044
:020000040030CA
:0E00000015087F50FF8991FF0FC00FE00F40E1
:00000001FF
